{
  "contractName": "Tether",
  "abi": [
    {
      "inputs": [],
      "name": "decimals",
      "outputs": [
        {
          "internalType": "uint8",
          "name": "",
          "type": "uint8"
        }
      ],
      "stateMutability": "view",
      "type": "function"
    },
    {
      "inputs": [],
      "name": "name",
      "outputs": [
        {
          "internalType": "string",
          "name": "",
          "type": "string"
        }
      ],
      "stateMutability": "view",
      "type": "function"
    },
    {
      "inputs": [],
      "name": "symbol",
      "outputs": [
        {
          "internalType": "string",
          "name": "",
          "type": "string"
        }
      ],
      "stateMutability": "view",
      "type": "function"
    },
    {
      "inputs": [],
      "name": "totalSupply",
      "outputs": [
        {
          "internalType": "uint256",
          "name": "",
          "type": "uint256"
        }
      ],
      "stateMutability": "view",
      "type": "function"
    }
  ],
  "bytecode": "0x60806040526040518060400160405280600681526020017f546574686572000000000000000000000000000000000000000000000000000081525060009081610048919061031a565b506040518060400160405280600481526020017f55534454000000000000000000000000000000000000000000000000000000008152506001908161008d919061031a565b506012600260006101000a81548160ff021916908360ff16021790555069021e19e0c9bab24000006003553480156100c457600080fd5b506103ec565b600081519050919050565b7f4e487b7100000000000000000000000000000000000000000000000000000000600052604160045260246000fd5b7f4e487b7100000000000000000000000000000000000000000000000000000000600052602260045260246000fd5b6000600282049050600182168061014b57607f821691505b60208210810361015e5761015d610104565b5b50919050565b60008190508160005260206000209050919050565b60006020601f8301049050919050565b600082821b905092915050565b6000600883026101c67fffffffffffffffffffffffffffffffffffffffffffffffffffffffffffffffff82610189565b6101d08683610189565b95508019841693508086168417925050509392505050565b6000819050919050565b6000819050919050565b600061021761021261020d846101e8565b6101f2565b6101e8565b9050919050565b6000819050919050565b610231836101fc565b61024561023d8261021e565b848454610196565b825550505050565b600090565b61025a61024d565b610265818484610228565b505050565b5b818110156102895761027e600082610252565b60018101905061026b565b5050565b601f8211156102ce5761029f81610164565b6102a884610179565b810160208510156102b7578190505b6102cb6102c385610179565b83018261026a565b50505b505050565b600082821c905092915050565b60006102f1600019846008026102d3565b1980831691505092915050565b600061030a83836102e0565b9150826002028217905092915050565b610323826100ca565b67ffffffffffffffff81111561033c5761033b6100d5565b5b6103468254610133565b61035182828561028d565b600060209050601f8311600181146103845760008415610372578287015190505b61037c85826102fe565b8655506103e4565b601f19841661039286610164565b60005b828110156103ba57848901518255600182019150602085019450602081019050610395565b868310156103d757848901516103d3601f8916826102e0565b8355505b6001600288020188555050505b505050505050565b6103ba806103fb6000396000f3fe608060405234801561001057600080fd5b506004361061004c5760003560e01c806306fdde031461005157806318160ddd1461006f578063313ce5671461008d57806395d89b41146100ab575b600080fd5b6100596100c9565b6040516100669190610297565b60405180910390f35b610077610157565b60405161008491906102d2565b60405180910390f35b61009561015d565b6040516100a29190610309565b60405180910390f35b6100b3610170565b6040516100c09190610297565b60405180910390f35b600080546100d690610353565b80601f016020809104026020016040519081016040528092919081815260200182805461010290610353565b801561014f5780601f106101245761010080835404028352916020019161014f565b820191906000526020600020905b81548152906001019060200180831161013257829003601f168201915b505050505081565b60035481565b600260009054906101000a900460ff1681565b6001805461017d90610353565b80601f01602080910402602001604051908101604052809291908181526020018280546101a990610353565b80156101f65780601f106101cb576101008083540402835291602001916101f6565b820191906000526020600020905b8154815290600101906020018083116101d957829003601f168201915b505050505081565b600081519050919050565b600082825260208201905092915050565b60005b8381101561023857808201518184015260208101905061021d565b83811115610247576000848401525b50505050565b6000601f19601f8301169050919050565b6000610269826101fe565b6102738185610209565b935061028381856020860161021a565b61028c8161024d565b840191505092915050565b600060208201905081810360008301526102b1818461025e565b905092915050565b6000819050919050565b6102cc816102b9565b82525050565b60006020820190506102e760008301846102c3565b92915050565b600060ff82169050919050565b610303816102ed565b82525050565b600060208201905061031e60008301846102fa565b92915050565b7f4e487b7100000000000000000000000000000000000000000000000000000000600052602260045260246000fd5b6000600282049050600182168061036b57607f821691505b60208210810361037e5761037d610324565b5b5091905056fea26469706673582212204d9fde5507bd37d883475f2bab684750721de7183450e6b099b554c88d4fa25b64736f6c634300080f0033",
  "immutableReferences": {},
  "source": "pragma solidity ^0.8.0;\r\n\r\ncontract Tether {\r\n    string public name = \"Tether\";\r\n    string public symbol = \"USDT\";\r\n    uint8 public decimals = 18;\r\n    uint256 public totalSupply = 10000000000000000000000; // 1 million tokens \r\n}",
  "sourcePath": "C:\\Users\\Exorcist\\Desktop\\Projects\\Fullstack\\DApp-Development\\defi-staking\\src\\contracts\\Tether.sol",
  "compiler": {
    "name": "solc",
    "version": "0.8.15+commit.e14f2714.Emscripten.clang"
  },
  "schemaVersion": "3.4.8",
  "updatedAt": "2022-08-06T19:20:44.489Z",
  "devdoc": {
    "kind": "dev",
    "methods": {},
    "version": 1
  },
  "userdoc": {
    "kind": "user",
    "methods": {},
    "version": 1
  }
}